:020000040800F2
:10000000088200209D0100083B15000851120008DD
:1000100039150008930700087D180008000000004B
:1000200000000000000000000000000009170008A8
:100030009507000800000000B51500080D1800081D
:10004000B7010008B7010008B7010008B7010008B0
:10005000B7010008B7010008B7010008B7010008A0
:10006000B7010008B7010008B7010008B701000890
:10007000B7010008B7010008B7010008B701000880
:10008000B7010008B7010008B7010008B701000870
:10009000B7010008B7010008B7010008B701000860
:1000A000B7010008B7010008B7010008B701000850
:1000B000B7010008B7010008B7010008B701000840
:1000C000B7010008B7010008B7010008B701000830
:1000D000B7010008B7010008B7010008B701000820
:1000E00009100008B7010008B7010008B7010008AF
:1000F000B7010008B7010008B7010008B701000800
:10010000B7010008B7010008B7010008B7010008EF
:10011000B7010008B7010008B7010008B7010008DF
:10012000B7010008B7010008B7010008B7010008CF
:10013000B7010008B7010008B7010008B7010008BF
:10014000B7010008B7010008B7010008B7010008AF
:10015000B7010008B7010008B7010008B70100089F
:10016000B7010008B7010008B7010008B70100088F
:10017000B7010008B7010008B7010008B70100087F
:10018000B7010008B7010008DFF80CD000F090F9C3
:1001900000480047A538000808820020064880472C
:1001A00006480047FEE7FEE7FEE7FEE7FEE7FEE75C
:1001B000FEE7FEE7FEE7FEE71118000889010008E8
:1001C00040EA01039B0703D009E008C9121F08C0D9
:1001D000042AFAD203E011F8013B00F8013B521E59
:1001E000F9D27047D2B201E000F8012B491EFBD2D0
:1001F00070470022F6E710B513460A460446194632
:10020000FFF7F0FF204610BD30B505462A460B46E5
:1002100012F8010B13F8014B08B1A042F8D01CB141
:10022000002802D06D1CF1E7284630BDCAB2401E3E
:1002300010F8011F8A4202D00029F9D1002070472E
:10024000421C10F8011B0029FBD1801A704710B521
:10025000002200E0521C835C8C5CA34201D1002B85
:10026000F8D1D8B2E1B2401A10BD30B50446002032
:10027000034600E05B1C934203D2E05CCD5C401B74
:10028000F8D030BD30B505460020034600E05B1CC9
:10029000934205D2EC5CC85C201A01D1002CF6D147
:1002A00030BD2DE9FE4F81EA030404F0004421F043
:1002B000004100944FF0000B23F0004350EA01048A
:1002C00002D052EA030404D10020014603B0BDE885
:1002D000F08FC3F30A54C1F30A552C44A4F2F3344B
:1002E0000194A0FB0254C1F3130141F48011C3F344
:1002F000130343F4801301FB024400FB034E840A02
:10030000970A44EA815447EA8357A4FB0768029599
:100310008D0A05FB07854FEA932C04FB0C54270537
:10032000029D4FEA065847EA1637B5EB08056EEB13
:10033000070C870E920E47EA811742EA8312A7FB49
:100340000201B6EB0B0164EB00042B0D43EA0C3306
:100350005E1844EB1C50DA465146E7FB0201C5F338
:1003600013044FEA0B3343EA14534FEA0432019C5F
:1003700043EA0603A4F10C040294009CCDE900B406
:1003800000F044F8A2E70EB540F23341029100219B
:10039000CDE900110A460B4600F038F803B000BD65
:1003A000C1F30A5210B5C1F3130140F2FF3341F417
:1003B00080119A4201DA002010BD40F233439A4284
:1003C000A2F2334203DC524200F003F810BD904029
:1003D00010BD202A04DB203A21FA02F000217047E8
:1003E00021FA02F3D040C2F120029140084319469D
:1003F000704710B5002B08DA401C41F1000192183B
:100400005B411A4301D120F0010010BD2DE9F04DF0
:1004100092469B4611B1B1FA81F202E0B0FA80F245
:100420002032904600F056F804460F4640EA0A0093
:1004300041EA0B0153465A46084303D12046394648
:10044000BDE8F08D114653EA010015D0C8F1400215
:100450005046FFF7BEFF05460E46504659464246F7
:1004600000F038F8084301D0012000E000200543E7
:1004700046EAE0762C4337430A984FEA4453A0EB10
:1004800008004FEAD4240A304FF0000244EA4754EF
:100490004FEAD72502D500200146D1E70105101902
:1004A0006941DDE9084500196941BDE8F04DA0E763
:1004B000064C074D06E0E06840F0010394E80700B1
:1004C00098471034AC42F6D3FFF762FE484101086A
:1004D00068410108202A04DB203A00FA02F10020DA
:1004E00070479140C2F1200320FA03F31943904072
:1004F000704770B501EB020410F8015B15F00703BB
:1005000001D110F8013B2A1106D110F8012B03E0AC
:1005100010F8016B01F8016B5B1EF9D12B0705D4B4
:100520000023521E0FD401F8013BFAE710F8013BFB
:1005300002F10202A1EB030303E013F8015B01F8EF
:10054000015B521EF9D5A142D6D3002070BD00290F
:10055000816802D041F0010101E021F001018160D8
:1005600070470000074B10B51A6807490A40D0E9E8
:1005700000142143D0E90240044321431143196090
:1005800010BD000004230140E030FCFF10B5012144
:100590008CB0880201F028F84FF400700A90032014
:1005A0008DF82C0000248DF82F400AA9164800F081
:1005B000EEFD4FF40030CDE90640089406A80994FA
:1005C000FFF7D0FF684600F0DAF800948DF8044099
:1005D0000120029404940D4C8DF805008DF8140050
:1005E0006946204600F066F80323012207212046D1
:1005F00000F086F801212046FFF7A9FF204600F011
:10060000B9F80CB010BD00000014024000220140F7
:10061000C06C80B27047000070B50C4608B1002075
:1006200070BD204D2868012803D1FFF7AFFF0020DF
:1006300028601D48FFF7ECFFFFF7A5FE9FED1B1B91
:1006400053EC112BFFF72DFEFFF7AAFE4FF47A7142
:10065000B0FBF1F1CAB26FF07C0112FB01F100EBCB
:10066000C1016423B1FBF3F1C9B24FF47A7312FBF9
:1006700003F301EBC10505EB011503EB8505431BF6
:100680000A26B3FBF6F303EB83063032303105EB79
:10069000460522703033401B6170A3703030E0702B
:1006A000042070BD18000020002201409A999999F9
:1006B0009999E93F30B542680F4B0C791A400B68A5
:1006C00042EA04221343436082680C4B4D791A407E
:1006D000D1E9034323438C6844EA4504234313438D
:1006E0008360C26A097D22F47002491EC9B242EADF
:1006F0000151C16230BD0000FFFEFFFCFDF7FFC0ED
:1007000070B5072409290AD9C568A1F10A0606EBC4
:100710004606B440A543B3401D43C56007E00569E4
:1007200001EB4106B440A543B3401D4305611F23BF
:10073000072A09D2446B521E02EB820293409C436B
:1007400091400C43446370BD0D2A09D2046BD21F43
:1007500002EB820293409C4391400C43046370BDC2
:10076000C46A0D3A02EB820293409C4391400C43D1
:10077000C46270BD816841F0804181607047002192
:100780000160017141718160C160016101210175E8
:100790007047FEE7704700001FB500F017F900F042
:1007A000D1FA1E484068F8B1012000F0D5FC00F0F5
:1007B0008BFC042001F01EF8684600F021FF019830
:1007C0006421B0FBF1F0B0F1807F0CD220F07F41CA
:1007D0004FF0E020491E4161114AF02111700021C3
:1007E0008161072101611FBD4FF4784000F0ECFDED
:1007F00000F0A0FDC0880BA100EB800080B200F0EB
:1008000039FD00F097FDC0884FF6FF7100EB400006
:1008100001EA400008A100F02DFDFEE710000020D5
:1008200023ED00E020202045746865726E65742019
:10083000496E69742020200020202020202066613D
:10084000696C65642020202020200000174A506831
:1008500003681146002B896808DB0368DB0505D5B2
:1008600048608868401C8860012070470368002B3E
:100870000CDB03689B0509D50368DB0506D408601B
:10088000002048600120886050680BE00368002B5E
:100890000ADB03689B0507D40368DB0504D48B6877
:1008A0005B1C8B60C068506000207047080100200E
:1008B00005490028886902D040F0020001E020F0DC
:1008C000020088617047000000900240F0B5124EAF
:1008D00000244FF0004744F2F45C551E706013E0B2
:1008E00000EB44131F60C4EBC41E0EEB4E0E01EB75
:1008F0008E0EC3E901CEAC4204D203F1200EC3F840
:100900000CE000E0D860641C9442E9D30349C8605D
:100910000348B060F0BD00000801002000900240D4
:10092000FC7D002005490028886902D040F4005071
:1009300001E020F400508861704700000090024000
:10094000F0B50F4C00234FF48016551E206011E0C7
:1009500000EB43142660C3EBC31707EB470701EB1B
:100960008707A760AB4203D204F12007E76000E0ED
:10097000E0605B1C9342EBD302490861F0BD0000CC
:10098000080100200090024002680A43026070479C
:1009900010B501214C06204600F01AFE2046BDE8A5
:1009A0001040002100F014BE01B581B00198009004
:1009B000002801D0401EFAE70CBD00000248816902
:1009C00041F4801181617047009002401CB5012103
:1009D00040F2E71000F0F0FD0121880300F004FE72
:1009E0004FF48070009003208DF8050002208DF8F0
:1009F000040000208DF80600264C8DF8070069469B
:100A0000204600F0C4FB012000F080FE862000900C
:100A10006946204600F0BBFB0B220121204600F076
:100A200007FC0B220221204600F002FC0B220721CA
:100A3000204600F0FDFB4FF46050174C00906946D3
:100A4000204600F0A4FB0B221146204600F0F0FBEC
:100A50000B220C21204600F0EBFB0B220D2120463F
:100A600000F0E6FB32200D4C00906946204600F075
:100A70008EFB0B220121204600F0DAFB0B22042121
:100A8000204600F0D5FB0B220521204600F0D0FBCC
:100A90001CBD0000000002400004024000080240AB
:100AA000034900200968C90700D0012070470000F1
:100AB0000090024030B50A4B59680A689C68C2F33E
:100AC0000D42121FA568012D02D92468A46800E018
:100AD0008C68CD685D600260C0E9014130BD0000F6
:100AE000080100202DE9F04188B00027804E0097D2
:100AF000044605973069884620F01C0501A800F0DF
:100B00007FFD7C4902987C4A0144914202D245F023
:100B1000080516E079497A4A0144914202D245F02B
:100B20000C050EE07749784A0144914209D3774990
:100B300008447749884202D245F0040501E045F0B7
:100B4000100535614FF400420021404600F032FAB2
:100B500000282DD06F48FFF727FF2068B0B36E4DF7
:100B600005980121401C0590404600F099F9400786
:100B700002D40598A842F3D30598A84217D04FF4A1
:100B8000805200214046059700F014FA00280FD04B
:100B900005980121401C0590404600F081F980062F
:100BA00002D40598A842F3D30598A84203D10020A7
:100BB00008B0BDE8F08110214046059700F070F9BB
:100BC000410704D54FF40061216201E008E027628B
:100BD000800701D5676113E04FF4804060610FE04A
:100BE000206A6169C00840EA510082B20021404693
:100BF00000F0E0F90028DBD06FF07F40FFF7D4FE73
:100C0000316846480140D4E901021043E26854F8D3
:100C1000103F1A43104362681043A2681043E26811
:100C200010432269104362691043A2691043E269CC
:100C30001043226A1043626A10430843306028342C
:100C4000D4E900010843D4E90212114308432169A1
:100C5000084361690843A1690843E169084370607A
:100C6000206AB060606AF060B1694FF6417001407F
:100C7000D4E90B021043238D626B42EA0342104316
:100C8000A26B1043E26B10430843B061D4E910013A
:100C90000843F06122498A6922480240D4E91203DC
:100CA0001843D4E914352B431843A36D1843E36D5F
:100CB0001843236E1843636E1843A36E1843104302
:100CC0008861D4E91B021043626F54F8783F1A43DD
:100CD0001043626840EA8200A268104340F40000BA
:100CE0000860086840F080000860012060E70000AC
:100CF0000080024000D3CEFEC0E1E40040F1E9FDF7
:100D000040787D0100796CFC005A6202001F0AFAEB
:100D100080F0FA02FFFF0F00FFFF04000F8120FFA9
:100D200000900240233FDEF8054B8A881844026495
:100D30000A78D1F8011042EA0121416470470000AD
:100D40000080024000B5AFB001214FF0606000F0BC
:100D500033FCFFF71DFE00F0CFF800BFFFF7A0FE49
:100D60000128FBD0684600F0E0F801200090002048
:100D70004FF40071CDE90A10090407901190CDE9F4
:100D800020010E90149013900A1115902590269032
:100D900023920420CDE9280180032A9080012B9022
:100DA00040122C9040002E9001216846FFF79AFED9
:100DB000014948602FB000BD1000002005490028FF
:100DC000086802D040F0040001E020F00400086050
:100DD000704700000080024005490028086802D0E2
:100DE00040F0080001E020F00800086070470000B3
:100DF00000800240F0B5284D00242A6811680029BF
:100E000001DA0020F0BD40F2F453984213D9B0FB50
:100E1000F3F103FB110606B1491C01290BD0C1F106
:100E20000106C6EBC61606EB460600EB86004F1E13
:100E3000C0F30C0023E0116841F040511160C0F391
:100E40000C005060106840F000401060D0682860CE
:100E500018E034B92E68D6F800C04CF0805CC6F8B3
:100E600000C05360BC4204D1166846F000561660BC
:100E70005060166846F000461660D268641C8C42CA
:100E8000E7D32A6005484169490703D50421416138
:100E9000002141600120F0BD0801002000900240C7
:100EA00018B500220092124A13694FF6FF7403F03E
:100EB0001C0304EAC02018434FF4F86303EA8111CD
:100EC000014321F0020040F001001061094800993F
:100ED000491C00911169C90702D000998142F6D3DB
:100EE0000099814201D1002018BD506980B218BD1F
:100EF00000800240FFFF04000248016841F0010148
:100F0000016070470090024000B50120FFF764FFC8
:100F1000FFF754FD0120FFF751FF0120FFF702FD0D
:100F200001205DF804EBFFF7C3BC01210160002143
:100F3000416081604FF48042C160C0E90412D21068
:100F40008161C0E9071241628162C162016341634C
:100F500040228163C0E90F122022C0E91121C1643F
:100F60000165416581658022C165C0E9181281660D
:100F7000C16601674167D2048167C0E91F12521040
:100F8000C0E921211311C0E92331C0F89410C0F841
:100F90009810C0F89C10C0E928125212C0F8A8207E
:100FA0009201C0F8AC205212C0E92C21C0F8B81050
:100FB0007047000038B500230093114B1C694FF6B1
:100FC000FF7504F01C0405EAC02020434FF4F864C8
:100FD00004EA8111014341F003005A611861094894
:100FE0000099491C00911969C90702D000998142F2
:100FF000F6D30099814201D1002038BD012038BDCF
:1010000000800240FFFF040010B54FF480442046EA
:1010100000F012F8002807D0012000F08FF82046D9
:10102000BDE8104000F002B810BD000001490860A2
:1010300070470000143C0140064A01460020126837
:10104000044B0A4014331B680B4202D0002A00D024
:1010500001207047003C014030B51A49837902688D
:1010600053B30B6893430B600A1D13680468A343D2
:10107000136002790A441368046823431360114A19
:10108000083213680468A3431360131D1C680568C5
:10109000AC431C604479102C05D021440A680068D8
:1010A00002430A6030BD1168046821431160196869
:1010B00000680143196030BD00790844016891431C
:1010C000016030BD003C014030B585B001210220F7
:1010D00000F072FA01218D03284600F085FA002401
:1010E0008DF810408DF8134003A91348039500F0C4
:1010F0004EF80E21012000F00FFB8DF804400C206B
:1011000000958DF8050001258DF806506846FFF71B
:10111000A3FF4FF4A06000F043FA28208DF80800E8
:101120008DF809408DF80A408DF80B5002A800F0A8
:1011300005FA05B030BD00000004024010B51221D0
:10114000FFF7AEFE800403D502480178C943017061
:1011500010BD00001000002010B504461121FFF75B
:101160009FFE40F0030211212046FFF723FF0028D5
:101170000CD012212046FFF793FE40F020021221EE
:101180002046FFF717FF002800D0012010BDF0B562
:101190000023012403270D6804FA03F21540954249
:1011A00042D1D0F800C05E0007FA06F52CEA050C23
:1011B000C0F800C091F804C0D0F800E00CFA06FCBA
:1011C0004CEA0E0CC0F800C091F804C0BCF1010F4D
:1011D00002D0BCF1020F1FD1D0F808C02CEA050CD8
:1011E000C0F808C091F805C0D0F808E00CFA06FC79
:1011F0004CEA0E0CC0F808C0D0F804C02CEA020C6F
:10120000C0F804C0426891F806C00CFA03FC1FFA4B
:101210008CFC42EA0C024260C268AA43C260CA79EE
:10122000C568B2402A43C2605B1C102BB3D3F0BD2B
:101230004B07DB0E9A40C90810B500EB8100016A2C
:101240000F249C40A1430162016A1143016210BD59
:10125000FEE70000064B10B49B68203AD2B21C682F
:10126000DB88534304EB430210BC00F01FB80000BE
:1012700014010020F0B50D46074640F23F140A4E17
:1012800008E021463846FFF7E5FFB0688088201A5D
:1012900084B26D1C2A78002A05D0B168601C80B227
:1012A00089888842EDD2F0BD140100202DE9F04379
:1012B000904689460026054600F052F81B4F1C4C0C
:1012C0002EE04FF0C0422220108000201EE00C23B0
:1012D000B2FBF3F3DB004FF0800C0CFA03FC38F8A0
:1012E00016304CFA00FC1CEA030F01D10C2A08D975
:1012F0004FF0010C0CFA00FC13EA0C0F03D10C2A7E
:1013000001D9628800E022883A80401C8A888242A3
:10131000DDD86D1CADB24946284600F021F8761C98
:10132000A168C888B042CCD8BDE8F0830000026054
:10133000140100200148806870470000140100205B
:1013400010B5002000F0A4F9012000F0A1F902205E
:1013500000F09EF9BDE81040032000F099B90000AC
:1013600030B5A0F23F10404285B216480C464068A6
:10137000001F0A2806D2DFE800F00B0B0505050563
:1013800011110523202000F027F82946212013E021
:101390004E2000F021F829464F200DE0210A0220BE
:1013A00000F01AF82146032000F016F8290A06205A
:1013B00000F012F829460720BDE8304000F00CB8D4
:1013C00030BD00001401002001B5BDF80000014946
:1013D000088008BD140100204FF0C0421080014871
:1013E00001807047000002602DE9F0411D4617465C
:1013F0000E46002478BB002000F06EF9012000F0BA
:101400006BF9022000F068F9032000F065F927E08D
:1014100057F8240015A1FEF71AFF00BB55F8240069
:1014200013A1FEF714FFC0B155F8240011A1FEF777
:101430000EFF60B155F824000FA1FEF708FF40B180
:1014400055F824000DA1FEF702FF28B107E00120A6
:1014500003E0022001E005E0032000F049F9641CEC
:10146000B442D5D306A0BDE8F08100006C656400ED
:1014700031000000320000003300000034000000A2
:101480002F53544D3332463478374C45442E6874CC
:101490006D6C000000B587B002F030FA02F00AFB74
:1014A000104801F02BF803906FF0FF0001F026F8D0
:1014B00004900C48663801F021F805900A4A0B495F
:1014C00000208DE8070005AB04AA03A9084802F034
:1014D0002DFB074802F066FB054802F0AFFB07B0A2
:1014E00000BD00006701A8C0F120000845210008E8
:1014F0005401002031B50C4C00982168401AFA289C
:1015000003D30098206004F003FC00986168401A3F
:1015100041F28831884205D300986060BDE83840C8
:1015200000F0BCBD38BD000008000020014800F0FC
:101530001DBE000054010020FEE7704770B50F216A
:10154000C478027801234FF0E026E4B1124C2468FD
:1015500004F4E064C4F5E064C4F30724C4F10405B2
:10156000E1404478AC4085780D4025430B4C29017F
:101570001155007800F01F018B40400906EB8000F8
:10158000C0F8003170BD02F01F008340500906EB27
:101590008000C0F8803170BD0CED00E000E400E098
:1015A0000249084302490860704700000000FA053C
:1015B0000CED00E070470000044A0029116801D0DA
:1015C000014300E081431160704700003038024061
:1015D000044A0029116801D0014300E081431160F1
:1015E0007047000010380240044A0029116801D0F9
:1015F000014300E08143116070470000443802401D
:1016000070B5204A1168204C11F00C0104D066100E
:10161000042903D0082903D004601BE0066019E008
:101620001849091F0B68C3F380550B6803F03F038B
:1016300015B1B6FBF3F301E0B4FBF3F30C680968F2
:10164000C4F388146343C1F30141491C4900B3FB4F
:10165000F1F1016011680F2303EA11110B4B5C5C7F
:101660000168E14041601468072505EA94241C5D87
:1016700021FA04F48460126805EA52329A5CD1407F
:10168000C16070BD083802400024F400F50000205D
:101690001CB504460E48012150F82400FFF78CFFCA
:1016A0000B4800210A3830F81400009001208DF812
:1016B00004008DF806108DF8070002208DF8050053
:1016C0000448694650F82400FFF761FD1CBD000086
:1016D0006C400108380100200349044A31F8101019
:1016E00052F8200041837047624001083801002011
:1016F0000349044A31F8101052F820000183704762
:10170000624001083801002070470000014908606C
:1017100070470000DC00274210B58A0721F003045F
:101720000649130F21440F220C689A4094430C6021
:101730000A68984002430A6010BD00000838014062
:101740000CB500202749019000900A6842F48032CD
:101750000A604FF4A0630A6802F400320092019A12
:10176000521C0192009A12B9019A9A42F3D10A6866
:10177000920334D5012000901A484030026842F0AC
:10178000805202601848026842F4804202601548A4
:10179000083002680260026842F400420260026897
:1017A00042F4A0520260031F104A1A600A6842F015
:1017B00080720A600A689201FCD50D4A40F2056108
:1017C0001160016821F003010160016841F002012C
:1017D00001600168C1F381010229FAD10CBD0090BA
:1017E0000CBD000000380240007000400854400763
:1017F000003C02404FF0E0210428086903D020F0AB
:1018000004000861704740F00400FAE700F02EB8C9
:10181000124810B5016841F4700101601048016878
:1018200041F0010101600E4A002108321160026896
:101830000C4B1A400260031D0B4A1A60026822F426
:101840008022026006480C300160FFF779FF0349EF
:101850004FF000608039086010BD000088ED00E0A6
:1018600000380240FFFFF6FE1030002402480168F5
:101870000A3101607047000000000020FEE702E02E
:1018800008C8121F08C1002AFAD17047704700200B
:1018900001E001C1121F002AFBD170471FB5416A48
:1018A000064B0122CDE90013CDE9021200F12B0312
:1018B0001946034A00F068FB04B010BD562E01081B
:1018C000502E01087CB50446406A002831D00079CA
:1018D00000282ED02434E0798DF80000207A8DF88D
:1018E0000100607A8DF80200A07A8DF80300E07A9A
:1018F0008DF80400207B8DF8050054F82409D1F8F8
:101900000E208D6903790831012B13D0022B01D1F0
:1019100043797BB1006882420BD106226846FEF70C
:10192000A4FC002805D0606A007A78B1204600F057
:1019300015F87CBD00688242F8D08542F9D10622B4
:101940006846FEF792FC0028F0D17CBD2046FFF7E8
:10195000A5FF616A642008727CBD00002DE9F0419A
:1019600005460027446A02F007F910B1284602F044
:101970001FF900266E60AE60EE6044B32671E6800B
:101980006671266084F80860B5F82F00164E304462
:1019900000F0B4FD02F060F9696A497A084413491D
:1019A00080B20843B04201D200F57E40104988421F
:1019B00001D9A0F57E4000F0A1FD2060607A401CB6
:1019C0006072284600F016F83846BDE8F0810A201B
:1019D00001F0AEFF040004D02660666026816C62D0
:1019E000D2E74FF0FF30F0E70001FEA90000FEA9AA
:1019F000FFFEFEA910B550F8241F01220A71002233
:101A00004A71C27A037B447A42EA0362837A0068AD
:101A10001B0443EA04231A4300B1407A10440A220B
:101A2000B0FBF2F302FB1300C880487A0A2802D9FF
:101A30004FF41670C88010BD00280BD0026A002A2F
:101A400008D0937C082B05D10968926A914201D194
:101A500000F084B87047000070B506000DD0346AFD
:101A600074B100224FF49A71104602F0F9F86061E7
:101A700048B1E27C37494AB10BE06FF0090070BD14
:101A80006FF0080070BD4FF0FF3070BD0A68521C47
:101A90000A600968216041680120A1610870A1699C
:101AA00000254870A16906208870A069C57020686B
:101AB00000F024FDA1694860A0690581A069458105
:101AC000A069C560A07C0A2803D0052801D004289D
:101AD00002D1A1697068C860A0695FF0000105616A
:101AE000A0694561A069856196F82A00884203D9FA
:101AF000701890F82B0000E0002001F11C02A3698F
:101B0000491C89B298541029EED3002000F12C0111
:101B1000A269401C80B255544028F7D35FF0000002
:101B200000F16C01A269401C80B255548028F7D3A3
:101B3000094800F0E3FCA169C1F8EC00A58300208E
:101B4000A26900F1F0015054401C80B24428F7D340
:101B5000002070BD5000002063538263F8B5046A12
:101B600006460C21204600F096F83046FFF774FF39
:101B7000050027D101223521204600F03BF8042141
:101B8000204600F047F804223221204600F032F8C7
:101B9000A06A02F061F80146204600F043F82046B2
:101BA00000F061F8A08BF03081B2606902F0D4F9E6
:101BB00000964323074A6169606804F029FA3046B9
:101BC00000F00AF8E07C401CE0741420E083284612
:101BD000F8BD00004C2E010810B5002809D0046A99
:101BE000002C06D0606908B102F064F90020606141
:101BF000A06110BD10B5838B84691C445B1C83837A
:101C000084F8F010818B83690B44491C818383F82D
:101C1000F02010BD828B83691344521C828383F8A9
:101C2000F010704710B5828B84690B0E1444521C5F
:101C3000828384F8F030828B84690B0C1444521C2C
:101C4000828384F8F030828B84690B0A1444521C1E
:101C5000828384F8F030828B83691344521C828320
:101C600083F8F01010BD002814D0818B8369FF2207
:101C70000B44491C818383F8F020002205E083692E
:101C80000B44491C818383F8F020818B4429F6D3CF
:101C90008B07F4D17047827C8A4202D08174002184
:101CA000C17470472DE9F84391468846060074D008
:101CB000B9F80A002A286DD3D9F80450012005F19B
:101CC0000E0400F01DFC2188884263D140F20460BC
:101CD00000F016FCA18888425CD14FF4006000F04F
:101CE0000FFC6188884255D140F6060000F008FCE0
:101CF000A98988424ED121463046FFF7E3FDD4F84A
:101D00000E000090A169706820B1814202D10127C4
:101D10003B4601E000273B4604F108026946304695
:101D200004F0CEF9E08800F0EBFB012802D0022895
:101D300030D12BE04FB3022000F0E2FBE080D4F87A
:101D40000E00A0617068C4F80E00706A062118B118
:101D5000007908B1124801E004F108000246491E6A
:101D600011F0FF0104EB0100037A8374535C6B54A0
:101D700018F80130037205EB010318F8010098719F
:101D8000EDD1B26949463046904703E06946304696
:101D9000FFF752FE484602F08DF8BDE8F8830000D8
:101DA000502E010830B4002810D04A688368456876
:101DB000D2F81A401D401C4002F10E01AC4205D180
:101DC0000023921D30BC0C3104F07AB930BC70474E
:101DD0002DE9FC410E46054614460E21304602F020
:101DE0008BF818B16FF00100BDE8FC812946204650
:101DF00001F0C9F808B1234B28E04FF0704001F022
:101E00002BFF216800EA01074FF0604001F024FF3A
:101E1000874222D101208DF8000000208DF80100BA
:101E20005E208DF80200206801F016FFC0F3064026
:101E30008DF80300206801F00FFF000A8DF8040000
:101E4000206801F009FF8DF805006B4605F12B02B3
:101E50003146284600F006F9C6E7A86821686A6896
:101E600001400240914203D0E86838B105F10C040A
:101E700032462146284600F007F8B5E76FF0030028
:101E8000B2E70000502E01082DE9F05F0D468246B2
:101E900000F12B0B14464FF0FF385146284601F055
:101EA00072F808BB4FF0704001F0D6FE296800EAD6
:101EB00001064FF0604001F0CFFE864214D09DB184
:101EC000286888B10121284600F09AF900280DDB26
:101ED000DFF8B09000EB800609EB8607B87B38B1DD
:101EE000012807D034B10BE06FF00900BDE8F09F86
:101EF0000120B8732946504600F0A2F8804604B38A
:101F0000B87B4D46022802D0012808D038E007F1FE
:101F100008035A462146504600F0A4F82FE0204618
:101F2000017B01290ED001890022032001F098FED7
:101F3000070025D0214601F041FF58B1384601F095
:101F4000B9FF1DE000680028EAD12746204602F0CC
:101F50002AF8AFB1062001F0D9FD0100EED0002033
:101F6000C1E9000755F8260008B905E010460268E7
:101F7000002AFBD1016001E045F8261000208046D0
:101F80004046B3E7BC5800202DE9F05F93468946F0
:101F90000746984600222A210320DDF82CA001F0F4
:101FA0005FFE06000DD075680D9805F10E0400F077
:101FB000A7FAE080796A062039B1097929B11F4969
:101FC00004E04FF0FF30BDE8F09F5946401E10F08E
:101FD000FF0004EB000218F8003013721AF800300A
:101FE00093740A5C2A5405EB000319F800209A71D7
:101FF000ECD10A980068C4F80E000C980068A06143
:10200000012000F07DFA20804FF4006000F078FAA3
:10201000608040F2046000F073FAA08040F6060091
:1020200000F06EFAA881BA693146384690470446F6
:10203000304601F03FFF2046C5E70000502E010862
:102040001FB50123064C021DCDE90213CDE9002482
:1020500000F12B031946A21FFFF796FF04B010BD35
:10206000562E01082DE9F0414D680E46074606241C
:10207000641E14F0FF0405EB0401185D2855105D83
:102080008871F5D14FF4006000F03AFAA88131462A
:102090003846BA69BDE8F041104700002DE9F0412B
:1020A0000025124CA84600BF05EB850704EB870608
:1020B000F07B401CC0B2F073B17B022902D0012931
:1020C00003D00DE0F02802D20AE0022808D354F829
:1020D000270018B100F03EF944F8278086F80E80FA
:1020E0006D1CEDB20A2DDFD3BDE8F081BC58002095
:1020F00070B5044640680D46808900F001FAB0F5DD
:10210000006F04D0A0F5006006380AD112E0214625
:102110002846FFF747FE6FF00D01204601F0ECFE68
:1021200018B1204601F0C6FE0AE02946204600F01C
:10213000D9FF05E0224605F12B012846FFF7B2FD45
:10214000002070BD10B5732180F83210742180F822
:102150003310044941610449816101F0F3FA002020
:1021600010BD0000D11D00083938000870B50546C3
:1021700001F022FB040009D02A6929469047050096
:1021800002D0204601F096FE284670BD4FF0FF3089
:1021900070BD00002DE9F047814699B1087888B1FB
:1021A00000250C464FEA050609EB8507A0462621C7
:1021B0002046C7F8F440FEF739F830B100F8016B5B
:1021C000044609E00020BDE8F08720214046FEF7E4
:1021D0002DF800B1067000243D214046FEF726F898
:1021E00020B100F8016BC7F8340101E0C7F8346191
:1021F0006D1C102D01DA002CD6D12846E3E7000033
:102200002DE9F35F4FF00A0A4FF00001DFF83CB10F
:102210000400D14652460D460E4657460B4616D090
:102220004B4890F8008008EB880C0BEB8C0090F882
:102230000EC0BCF1020F0AD1D4F800C0406884453A
:1022400005D14FFA88F0BDE8FC9F0A2A07D1DFF8D4
:10225000FCE001EB810C0EEB8C00807B60B101EBAC
:10226000810B0EEB8B0090F80EC0BCF1010F05D076
:10227000BCF1020F1AD02AE04AB228E02CB1D4F8FF
:1022800000C0D0F80480C44517D05EF82BC0C07BD6
:10229000BCF1000F04D0984219D34FB2034616E0A8
:1022A000A84214D34FFA81FA054610E04CB1D4F895
:1022B00000C0D0F80480C44503D12548017048B25D
:1022C000C1E7C07BB04202D34FFA81F90646491CF0
:1022D000C9B20A29B9D301994FF0FF304FF0000875
:1022E0000A2A05D08907AED40A2A06DAD5B21CE03C
:1022F000C907A8D001998907A5D4B9F10A0F02DA54
:1023000009F0FF0511E0BAF10A0F02DA0AF0FF0541
:102310000BE00A2F97DAFDB20C4E05EB850756F855
:10232000270000F017F846F82780084805EB8502DB
:1023300000EB8200414680F80E800CB122684260BA
:10234000C1730348057068B27DE70000BC580020E7
:10235000F400002070B5044608E02546D5E90040A9
:1023600001F0A8FD2946062001F098FB002CF4D1CD
:1023700070BDD0E90110081A704700F001B80000E4
:10238000094A002101EB410302EBC303834206D15A
:1023900001EB410102EBC101002008757047491CA7
:1023A0000A29EFDB704700008C0100202DE9F04185
:1023B000074600201649064600EB400201EBC20228
:1023C000127D2AB1401C0A28F6DB0020BDE8F0810E
:1023D000012200EB400011EBC0042275F5D00D4D39
:1023E00005E038466968FDF732FF30B12D68002DF1
:1023F000F7D12046FFF7C4FFE7E7A8682060E86848
:102400006060E868C4E90206287C20742046DDE7A5
:102410008C010020C42D010870B505460B46D5E996
:102420000110884202D14FF0FF3070BD0C1A944267
:1024300000DD14462968224601441846FDF7C0FE17
:10244000A8682044A860204670BD00002DE9F04136
:10245000224D044600F12E07296800F1300881B1B1
:10246000A86870B1686860B1002607E0A86850F8F5
:1024700026103846FDF7EBFE60B1761C6868864290
:10248000F4DB3846FDF7DCFEA72809D23846FDF715
:10249000D7FE06E02B68C0224146304698471AE036
:1024A000A720054612220EA14046FDF789FE2A46C6
:1024B000394604F14200FDF783FE0EA160190A6857
:1024C00040F8422F898881803E2181710021C171AD
:1024D0004046FDF7B5FE6085BDE8F0812C00002088
:1024E0003C623E2A2A2A554E4B4E4F574E205441AD
:1024F000472000002A2A2A3C2F623E0000BA70477B
:1025000040BA704770B50E460121304603F0B1FA6B
:102510004FF4BA75284601F00BFA040019D0294689
:10252000FDF767FE2146304601F08EFE0A4930462F
:1025300003F060F90949304602F0E1F80422084945
:10254000304602F08DFD0749304603F08FFA002037
:1025500070BD4FF0FF3070BD9F280008BD250008FA
:102560006D280008992C000870B50D46044600211E
:1025700001F06AFE0021204603F03CF900212046CC
:1025800002F0BDF800221146204602F069FD00214C
:10259000204603F06BFA284600F098FB204601F035
:1025A000B3FE002806D02046BDE870400422024950
:1025B00002F056BD70BD00006D280008002801D053
:1025C00000F084BB704700002DE9F7434FF000088E
:1025D000054680F82C800198914601782F2901D179
:1025E000417869B13F21FDF721FE040001D004F8D4
:1025F000018B354E306970B3F06860B3002720E07E
:10260000324F002657F83600FFF7D0FE040057F887
:102610003600019003D007EBC600007945E0761C38
:10262000052EEFD301A800F053F8044685F82C805E
:1026300041E0F06850F837100198FDF708FE80B1CE
:102640007F1C30698742F4DB3069874203D114B1C3
:102650003F2004F8010C0198FFF7A8FE040012D0F7
:1026600016E021462846FFF795FD0146F06805F57E
:102670009A7300EBC70005F1F402D0F804C03846A5
:10268000E0470190E0E701A800F022F8040012D032
:102690000D4F002685F82C8017F11407019857F884
:1026A0002610FDF7B1FD18B1012085F82C0002E0DD
:1026B000761C042EF2D34A4621462846019B00F0A0
:1026C00031F8BDE8FE8300002C000020E82D010851
:1026D00010B504460AA02060FFF768FE00280DD15F
:1026E0000AA02060FFF762FE002807D10AA0206040
:1026F000FFF75CFE002801D10021216010BD000021
:102700002F3430342E68746D6C0000002F34303458
:102710002E68746D000000002F3430342E736874FE
:102720006D6C000070B50446002001B3208584F86C
:10273000F1000B68E3614B6863620B682362216000
:102740000B6863604D6865612076087C98B192B132
:102750002A460AA1184601F08BFC60B16168401A54
:10276000001D014461606169081A606103E0206036
:10277000606060612076002070BD00000D0A0D0AC7
:10278000000000002DE9F047056808680E4608B90A
:10279000706818B16FF00A00BDE8F087B06890B1BA
:1027A000294601F0E5FAB068016871B1058940F287
:1027B000FF318D4200D30D4600232A46264901F001
:1027C00045FB254C03E0B560EDE76C686D896FF063
:1027D0000909072D30D32A4620A1204601F048FCE4
:1027E00050B3002704221EA12046FDF74BFDB8463A
:1027F00010B184F804802CE02D1FE41CADB22A46F1
:1028000019A1601C01F034FC28B92A4613A1601CF0
:1028100001F02EFC0127011B491E8AB260B1A042C3
:102820000AD9611C84F8008001F802803A463046DB
:10283000BDE8F047FFF7C8BEB06801F0B6FAB1686E
:102840000989B1F5806F04D20A2802D86FF00D0013
:10285000A2E74846A0E700007C0200200D0A000025
:1028600047455420000000002000000010B50C4631
:10287000010010D0087E401CC0B2087604280AD09F
:10288000086830B1204600F041F810B1204602F04F
:10289000F3F9002010BD2046FFF766FEF9E77FB58B
:1028A000044602980E466FF0040563B130B1018909
:1028B000304602F0B4FF029801F0FCFA214630469F
:1028C000FFF752FE1AE00028F8D0002CEFD0018963
:1028D000304602F0A4FF206838B93246214602A8EB
:1028E000FFF750FF05460E3006D0A06818B101F082
:1028F000E1FA0020A06025B10A35DFD004B0002045
:1029000070BD2146304600F001F8F7E72DE9F84F99
:102910000546002648690C46B04678BB206838B1A9
:10292000FFF727FD002879DDE06828B127690BE073
:102930002846FFF719FE1AE0288F4700B8B200F0CA
:10294000F7FFE06070B1276101463A462068FFF763
:1029500063FD00280DDA21462846FFF705FE012019
:10296000BDE8F88F07EBD7704710642FE6DC002036
:10297000F6E76061E1686160E161606294F82C00F3
:102980004FF6FF7728B3B5F86E20ADF80020E36965
:1029900061684FF0010B04F12E094FF0000A8B42E1
:1029A0003BD9581A904201DCADF80000288FBDF8E1
:1029B0000020B2EB400F03D907EA4000ADF8000059
:1029C00001236A46284600F095F95FEA000817D00F
:1029D0001FE0B5F86E106069814202D2ADF80010B8
:1029E00001E0ADF80000288FBDF80010B1EB400FFA
:1029F00003D907EA4000ADF80000002361682FE129
:102A0000BDF8000061680126014461606169081A2F
:102A10006061B5F86E00002870D0F9E035E100BFC4
:102A2000BDF800100029F7D094F8F120052AF4D25F
:102A3000DFE802F0030C2565B000E1690A783C2A62
:102A40007AD184F8F1B0A4F828B075E0218D052979
:102A50000AD0904BE2691B6892F800C05B5C9C4511
:102A600006D1491C218505E0A4F828A00220CDE06C
:102A700084F8F1A0401E521CE2616062C8E0218D22
:102A800049B9E3691A78202A13D0092A11D00A2AF1
:102A90000FD00D2A0DD0E06900782D280ED0202807
:102AA0000CD009280AD00A2808D00D2806D0B9B1C0
:102AB0001BE0401E5B1CE3616062A9E0A9B103203A
:102AC00084F8F10084F82D1001F809A0E16950465E
:102AD00009782D2901D0208509E0A4F828B006E066
:102AE000A4F828B001F8090001E084F8F1A0606AB8
:102AF000401E6062E069401CE06189E0C7E0228D11
:102B00004AB9E1690B78202B16D0092B14D00A2B77
:102B100012D00D2B10D05F4BE169A0F101005B6872
:102B200011F801CB9B5CE1619C4560622FD1022AC8
:102B300007D0521C22856BE0401E491CE161606297
:102B400066E02046FFF782FCA4F828A0042084F861
:102B5000F100E06920626168884259D9BDF800201F
:102B6000401A904201DAADF8000094F82C0008B148
:102B7000012300E000236A4620E0BDF80000616800
:102B80000126014461606169081A606140E084F8CF
:102B9000F1A03DE0226A6068824219D9121A8A4285
:102BA00004DA1104090CADF800100ED094F82C10C2
:102BB00009B1012300E000236A460146284600F0DF
:102BC00099F85FEA000823D1D7E74FF00008D4E76F
:102BD000228D608D824216D2801A884201DAADF8C9
:102BE000000004F13000111801236A46284600F065
:102BF00081F85FEA00080BD1208DBDF80010012696
:102C00000844208504E05046A4F828A084F8F10088
:102C1000606A18B1B8F1000F3FF402AF94F8F10008
:102C200004282BD06168E069884227D9B5F86E2066
:102C3000401A904202DDADF8002001E0ADF800003E
:102C4000288FBDF80020B2EB400F03D907EA4000FF
:102C5000ADF8000094F82C0008B1012300E0002337
:102C60006A46284600F046F840B9BDF800006168A1
:102C70000126014461606169081A6061606930B9C8
:102C80002068FFF776FB002801DC214650E630463D
:102C900066E60000E02D010810B50A46010004D0E8
:102CA000002008761046FFF731FE002010BD00001E
:102CB000014AC2E9030170472C000020024B9960D1
:102CC000C3E90002704700002C00002070B504002A
:102CD0000FD02068002510B1FFF74FFB2560E0689A
:102CE00010B100F0F5FDE5602046BDE8704000F051
:102CF000EFBD70BD2DE9F04114881F46154688468A
:102D000006463B4622464146304603F02BF8411C1E
:102D10000BD1B6F86E1019B1B6F87010082901D3AE
:102D2000012402E06408012CEBD82C80BDE8F0817E
:102D3000054A0448D2E90012C0E902120121083014
:102D4000FFF7B6BF18000020D82D010870B500F0BD
:102D500021F8FFF7EDFF0D4C01F052FF0546012170
:102D600002F087FE50222146284601F06FFAFF212B
:102D7000284601F005FF0446014601F065FA2046A9
:102D8000BDE87040024901F0DDB90000482E01089D
:102D9000052500080248012241680248FFF78EBF5E
:102DA00018000020190600080A46032100F08AB81E
:102DB0002DE9FE4F446805468A46208800F04EFF04
:102DC000C0F303204FEA8009C9F100018846284674
:102DD00001F092F8002870D1288904286DD3686822
:102DE0000078082869D101264FF0704000F034FFC8
:102DF000216900EA01074FF0604000F02DFF874293
:102E000000D10026514604F1100000F0BCF8002863
:102E100053D1002E51D0288908284ED3284600F0DF
:102E20008EF8E8BB2221284601F066F8D0B1494669
:102E3000284601F061F898BB29890022022000F0A1
:102E40000FFF060039D0294600F0B8FF40BB4146CD
:102E50003046746801F050F810BB284601F02AF89B
:102E6000354605E06FF02101284601F045F8B8B974
:102E70006868E1682269E260216100260670468088
:102E8000208900F0EBFEC0B240F47F40FFF738FB32
:102E9000208166814946284601F02EF800B900E0FD
:102EA0000BE00121CDE90061FF230022CDF808A04D
:102EB00004F10C01284600F0F5F92846BDE8FE4F64
:102EC00000F0F8BF2DE9FC4791460E4680460022EF
:102ED0002421012000F0C4FE050024D06C68D8F83D
:102EE00004701C22267084F801900026A680E680DB
:102EF0006868D8F804100830FDF762F966806989BF
:102F0000204600F016F860800120CDE90060FF2324
:102F100007F10C020021284600F0AAF92846BDE876
:102F2000FC4700F0C7BFBDE8FC870A460B21FFF74E
:102F3000C9BF10B500F098FCC04380B210BD70B599
:102F400000242646054613E06989686800F08CFC79
:102F50002044010C11FA80F4A87AC00707D0C6F10A
:102F60000100C6B2E0B2C4F3072141EA00242D6893
:102F7000002DE9D126B1E0B2C4F3072141EA0024D3
:102F8000E04380B270BD0068421C12D088B191F855
:102F9000312092070BD54A68824208D0896800EA3E
:102FA00001030A40934202D10143491C01D0002091
:102FB00070470120704700002DE9F74F84B00222CE
:102FC00005984FF014080021058D104600F048FECA
:102FD000070020D042487D813D8120F003047C60C1
:102FE0000498142241682046FDF7EAF8E08800F0D2
:102FF00035FEC0F30C0900F40050029004980089DB
:10300000143886B2143DE81705EB5070C0F3CF00BA
:10301000CDE9000553E04FF0FF3007B0BDE8F08F79
:103020000198864201DC012000E000205FEA000AEE
:103030000298C9F30C0545EA000547D0304680B236
:1030400083460246434604F11401049800F0FEFE54
:1030500040441FFA80F82846FFF752FAE0800BF14F
:10306000140080B2FFF74CFA6080002060811421C8
:103070002046FFF75EFF6081BAF1000F05D006F130
:10308000140081B2384600F067FF0022114602208A
:1030900000F0E6FD05001ED0394600F07DFE0598E3
:1030A0002946069A43699847284600F003FFA6EB95
:1030B0000B00009986B209EB01001FFA80F9002E7F
:1030C000AED1384600F0F6FE0020A6E7009845F4A1
:1030D0000055C000B3E7384600F0ECFE9BE7000067
:1030E000DF5200202DE9F05F4468064688462088BC
:1030F00000F0B4FD0421B1EB103F12D1208800F0A4
:10310000ADFDC0F303204FF6FF7101EA800960882E
:1031100000F0A4FD728901464A4502D330898842F5
:1031200003D2304600F0C6FE62E0304600F014FFE5
:10313000DFF834A10127454604F1100B284600F0C2
:103140001BFD68B1281D0BD0686848B12169814218
:1031500004D029465846FFF716FF08B15DB117E0C5
:103160001FB10027DAF8005000E02D68454500D176
:103170002D68002DE2D1208900F070FDC0B2112829
:1031800006D104EB0900408800F068FD44282DD0EA
:10319000E06898B1414604F10C00FFF7F4FE002806
:1031A000BFD14FF0704000F057FDE16800EA010721
:1031B0004FF0604000F050FD8742B2D0002DB0D0FB
:1031C00043F6FF70FFF79CF9E188084205D03046CE
:1031D00000F0CEF806000BD07468244D414630460E
:1031E000C5E9018400F010FF28B138E04546E5E765
:1031F0000020BDE8F09F208900F030FDC0B201281A
:1032000013D006280CD01128414605D004F1100037
:10321000FFF7B9FE70B11FE0304602F031FE1EE04C
:103220004146304601F09CFA19E041463046FFF72E
:10323000BFFD14E04FF0704000F00EFD216900EA80
:1032400001074FF0604000F007FD874204D00221E3
:1032500030467460FFF7A8FD304600F02BFE0020DA
:103260006860A860C4E7000068000020E00000205B
:103270002DE9FE438146DDE90A541F46164688467D
:10328000104600F03BFA50B10095CDE901403B46B5
:1032900032464146484600F005F8BDE8FE836FF02F
:1032A0000300FAE72DE9F05F1F46DDE90BA5DDF825
:1032B00028B05FEA02088946064641D0142130460C
:1032C00000F01AFE18B16FF00100BDE8F09F7468BD
:1032D000208900F0C3FC67F31F20FFF711F920815C
:1032E00000F0BCFC20F0FF0040EA0A00FFF708F9FC
:1032F0002081D8F8000020611FFA8BF040F48A404A
:10330000FFF7FEF820803089FFF7FAF8174F60804A
:103310004FF0000AA4F806A03888FFF7F1F8A08063
:103320003888401C3880B9F1000F02D0D9F800006D
:1033300010B9281D00D06868E060A4F80AA002E077
:10334000706800F11008288D48B13189814206D992
:10335000424629463046BDE8F05FFFF72DBE4246A3
:10336000314628466B69BDE8F05F1847E000002051
:103370002DE9F14F4FF0000A00984568288800F0C9
:103380006DFCC0F3032005287ED1E88800F066FCC0
:10339000C0044FEA1049688800F060FC04462888A1
:1033A00000F05CFCC0F30320404204EB80001FFAF5
:1033B00080F8009800F0F9FC514E074630883844F8
:1033C0000A2809D93946284600F062F900285BD05E
:1033D000308838440A2857D84FF0000B74680DE045
:1033E0006069E968884207D1A0692969884203D1E8
:1033F000A089A988884204D0A2462468002CEFD175
:1034000006E02CB1E88800F029FCC00419D023E0C4
:10341000052000F07BFB04000AD13946284600F065
:1034200037F9B84266DB052000F070FB040061D07C
:103430002021FCF7DEFE0320E077706820607460D6
:1034400004E0E08900F00AFCC00405D014222946FB
:1034500004F10800FCF7B4FE308838443080E88876
:1034600000F0FCFB800406D4A07F40F00100A077B0
:1034700009EB0800A0832046009900F043F80028DB
:1034800036D0A08B143000E034E0A08360681422B2
:1034900004F10801456828462F68FCF791FEA08BCF
:1034A000FFF72EF86880A5F806B0A5F80AB0142139
:1034B0002846FFF73EFD68816FF01309D4F80480B9
:1034C00009E0494638467D6800F016FD3946404619
:1034D00000F04EFC2F68002FF3D15146204600F03B
:1034E0008DF8404600F061FC3188081A3080404673
:1034F000BDE8F88F009800F0DDFC0020F8E7000040
:10350000EC0000202DE9F047D1F8049006460D4666
:1035100000244FF00108B9F8020000F09FFB0746B5
:10352000B9F8000000F09AFBC0F30320404207EB1B
:103530008007B9F8060000F091FBC004010C686830
:1035400000220260CA19818097B2C78073681EE0AA
:103550005A68B2F804C061450DD2036044B1B4F8B2
:1035600006C061453CD391888F4239D8256000E080
:10357000756073B11AE033D0D388994230D324B147
:10358000E388634501D04FF0000813681446002B10
:10359000DED154B12560E1888288914206D0B17FA6
:1035A0004FF00008C90714D118E07560B17FC90752
:1035B00014D0B8F1000F0CD071684968898831B90E
:1035C000016831B14968C0888A88904204D04FF0C0
:1035D00000084046BDE8F0870846F1E70020F9E71B
:1035E000284600F0E2FB014603480288511A018098
:1035F000284600F05FFCF1E7EC000020074B30B4F8
:103600000A465C680168844201D1596000E011609B
:10361000014630BC052000F041BA0000EC0000205B
:103620002DE9F04144680646884660680025818897
:1036300091B900687060142206F108016068FCF717
:10364000BFFD01212046FFF770FC204600F0ADFBD6
:103650000546204600F02EFC746809E060682746A5
:103660000468384600F0A1FB0544384600F022FC0F
:10367000002CF3D141463046FFF7C0FF03480188D4
:10368000491B01802846BDE8F0810000EC000020C5
:103690002DE9F041184F88460646002400221146C5
:1036A000154678681AE04369D6F80CC0634509D11D
:1036B0008369D6F810C0634504D18389B6F804C085
:1036C000634507D06D1C22B1C37F92F81FC06345CC
:1036D00000D80246036803B1014618460028E2D12B
:1036E0001AB11046FFF79CFF0444444501DA012D4E
:1036F000D4DC2046BDE8F081EC00002070B5054622
:103700000E4804680DE0204600F036FA40B1A0688B
:103710002968626801400240914201D1204670BD93
:103720002468002CEFD1064C206820B100F024FA68
:1037300008B1206870BD002070BD00006800002046
:103740006C00002070B50446062004F82A0F022001
:1037500060700020A070E07020716071A0712A3C40
:1037600004F12B01FDF7E0FA40F2DC502085322015
:1037700084F8310002220C490C48FDF7E1F80422DC
:103780000B490C48FDF7A2F8084D00244FF4400601
:1037900005EB44103146FDF7F7F8641C022CF7DB0B
:1037A000BDE87040FDF7B0BB14720020045A002041
:1037B000445A0020845900202DE9FE430026684623
:1037C000FDF778F9DDE901710098884681B203229E
:1037D000104600F045FA05000AD00446B91962897E
:1037E0006068FCF7EDFC608924680644002CF5D184
:1037F0000F4A10688168012901D9016800E041463B
:1038000000204FF0004302E00B60C968401C1468C0
:10381000A4688442F8D81068002181600548426994
:10382000120602D58022426181602846BDE8FE83EF
:10383000100100200090024070B50A4800250C4697
:103840000068866807E0628970196168FCF7B8FC57
:10385000608924680544002CF5D1A8B2FDF7CAFAA6
:10386000002070BD0801002030B4002207E003787A
:103870001C024378801C2343891E1A4489B2012903
:10388000F5D811B1007802EB0022100C10FA82F08A
:10389000010C02D0010C11FA80F030BC80B2FEF7AE
:1038A0002FBE0000FDF74CFDFCF776FFFDF7F2FDA3
:1038B000FFF74CFA054C00BFFCF7C8FF08B1FDF755
:1038C00035FE2068FDF716FEF6E700000000002038
:1038D00000280FD008494A6890420BD38A6890426A
:1038E00008D2083800220271CA68904200D2C8602B
:1038F00000F060BB704700005400002010B50A487B
:103900000A4A20F003004FF4205350600021038046
:103910004180017100F52051012491600C710B80F0
:103920004B801470D06010BD7F0600205400002032
:10393000F0B5002847D0C01C4FF6FC7100EA010426
:103940004FF4205C0C2C01D20C2401E064453FD8DC
:10395000204AC4F52055D6685368F01A81B235E084
:103960005818077987BB07887F1A083FA7422CD3CE
:10397000058804F1140E6D1A083D0127754514D30E
:103980000C440834A5B25C194FF0000E84F804E032
:10399000B0F800E0A4F800E061800580077121889C
:1039A000614503D09C1C0D5300E00771B04209D162
:1039B000D2E902410D792DB1A14203D00988194401
:1039C000D160F7E70830F0BDFFE7595A8D42C7DCF8
:1039D0000020F8E7540000202DE9F04FC91C4FF6F5
:1039E000FC7211404FF420590C2901D20C2101E046
:1039F000494510D8284D6C68A0420ED3AA68904261
:103A00000BD2A0F10802131B17889BB2FE1A083EC6
:103A1000B6B2B14203D94FF00000BDE8F08FFCD040
:103A2000AA461D4D07EB040C4FF0000BEF689CF805
:103A300004806D68B8F1000F05F1020516D001F1A0
:103A4000140CB445E9D8194408318EB2A119B94211
:103A500001D2CAF80C1081F804B014880C804B8095
:103A6000168009884945D8D04E53D6E71944083105
:103A7000BCF8006089B2674502D16718CAF80C70BB
:103A80000C4484F804B026806380118022884A4563
:103A9000C3D05153C1E7000054000020002905D0D5
:103AA000034A52F820300B6042F8201070470000A3
:103AB000902E0020F0B50020401C80B20928FBD3D6
:103AC0001048104B20F0030200200F4D0746273B03
:103AD00005F1120443F82070002109E053F820603A
:103AE000166043F8202035F81060491C324489B232
:103AF00034F810608E42F1D8401C80B20928E9D316
:103B0000F0BD0000B72E0020102E01080146092844
:103B100001D300207047044A52F821000028F9D050
:103B2000036842F821307047902E00202DE9F041C3
:103B3000044606A8E0C800206060A060E06084F849
:103B400031002062E5610B4D6062287884F8340012
:103B5000401C28702046276100F013F82046B0472B
:103B600010B10020BDE8F0816868206020466C60DC
:103B7000F8E700006400002090F8310000F0010038
:103B8000704770B51D461646044600F01FF83146D2
:103B9000204600F04FF829462046BDE8704000F06E
:103BA00010B80000014988607047000064000020E0
:103BB00090F83110CA0703D021F0010180F83110CC
:103BC000704701B10968C1607047000070B50546D3
:103BD0000C460868696888421ED0144800680AE0EC
:103BE00001686A68914205D10121C66800F060FA57
:103BF000304600E0C0680028F2D10D48006809E0B6
:103C000007D0016829B16A68914202D144B12168A4
:103C10000160C0680028F3D12CB12068686070BDD5
:103C20004FF00001F4E74FF00000F7E788000020B4
:103C30008400002001B109688160704790F831105C
:103C4000CA0708D141F0010180F83110890602D578
:103C5000011DFEF7F5B9704700BA704740BA7047CA
:103C60002DE9F05F16460D46002730B1012805D03A
:103C7000022804D003284DD102E0142714370E3750
:103C80004FF0010A4FF00008F6B3012E5ED0022E6D
:103C90005CD0032E3ED10820FFF738FF04003AD055
:103CA000E0191330267320F00300C4E90080FF1CE4
:103CB00027F00300C0F5007041462581A84200DDD1
:103CC000284660815746A4F80EA0A1462D1A4FF44D
:103CD000007B884616E00820FFF718FFB8B106738E
:103CE00080F80D80C0F80080A9B2C9F800000181F9
:103CF000594500D35946418100F110024260C78105
:103D00006D1A8146002D00E007E0E4DC2AE0204641
:103D100000F0D0F80020BDE8F09F07F1130020F07C
:103D20000301E81C20F00300084480B2FFF700FE06
:103D30000400F0D0E019133020F00300606025810A
:103D40006581C4F8008084F80C800BE00720FFF741
:103D5000DDFE0400DFD0C4F8048025816581C4F84D
:103D600000802673A4F80EA084F80D802046D2E7C8
:103D700010B500280FD000290DD004E003890C896C
:103D80002344038110460268002AF7D102890B8977
:103D90001A440281016010BD10B50C46FFF7E8FF20
:103DA0002046BDE8104000F0FEB8002102E0491CAA
:103DB0000068C9B20028FAD1084670472DE9F047DB
:103DC0004FF000070C4605003E4604D01CB1288980
:103DD0002189884203D26FF00900BDE8F0876FF0B7
:103DE000080968896189C01B891B884201DB88B288
:103DF00000E080B2804660684246811968683844B5
:103E0000FCF7DEF907EB080087B206EB080086B284
:103E10006889B84201D12D6800276089B04201D875
:103E2000246800262CB160892189884201D120684C
:103E300030B93DB168892989884203D1286808B121
:103E40004846CAE7002CCCD10020C6E72DE9F04750
:103E5000164689464FF00008002806D0B9F1000F39
:103E600002D00027044620E00020BDE8F0872BB1F7
:103E70006089984202D8181A83B215E06089C01A86
:103E800085B2B54200D9354660682A46C11809EBAB
:103E90000700FCF795F908EB05001FFA80F8781980
:103EA00087B2701B86B2002324680EB1002CDED1CD
:103EB0004046DAE770B5002815D00024C189491EB4
:103EC0000904090CC1810DD1017B056803290BD0C0
:103ED00001290CD002290AD0FFF7FAFC641CE4B2D5
:103EE0002800EBD1204670BD0146082001E00146C4
:103EF0000720FFF7D3FDF1E710B541B138B1002934
:103F000007DA4A4293B242899A4223D302E0002060
:103F100010BD8BB2027B446832B1032A04D0022A5E
:103F20000AD0012A08D015E0621A00F1100342609D
:103F30009A4208D244600DE000290BDA42899A4285
:103F400008D3621A426042890A44428102891144BC
:103F50000181DCE7012010BD70B502898A4221D9B8
:103F60008A1A0D46044605E0281A85B220891044B5
:103F7000208124686089A842F6D3207B50B96089EB
:103F8000A84207D0A088001B284481B22046FFF732
:103F900023FD044665812581206808B1FFF78AFF6B
:103FA0000020206070BD002802D0C189491CC18159
:103FB0007047000030B5134903884A681344941CC5
:103FC00098420DD01D795DB98D68AB4208D0CD689F
:103FD0009D4200D1C8601D8805801B88851A1D532D
:103FE0004388134483420BD01D79002D08D1CD683E
:103FF000854200D1CB60018819800088991A01534D
:1040000030BD0000540000202DE9F047466882468C
:1040100000273089FFF722FEDFF8509000F0FF08FC
:104020000025D9F800401CE0217C414516D1D4F888
:1040300014C0BCF1000F11D006F10C03524621460A
:10404000A069E04750B14FF0000A012735B1E068A0
:10405000E860D9F80010E160C9F800402546E4683E
:104060000FB9002CE0D13846BDE8F0877000002081
:104070002DE9F041044617460E460846FCF7E0F8E5
:10408000050013D0274409E03178884205D12A463B
:1040900031462046FCF7F6F840B1641C207810B198
:1040A0006119B942F0D90020BDE8F0812046FBE754
:1040B0002DE9FF5F0446007C8B460A2832D0D4F8F5
:1040C00058A0D4F82490BCB320680290201D00D0E2
:1040D00060680390278B268C21461948D4F81480F9
:1040E000D4F8905000F08EFFA06F08B101F07BFC77
:1040F000606F08B101F077FC21460220FFF7CEFC8B
:104100001DB16FF004014046A847BBF1000F07D076
:10411000CDE9007603AB02AA4946504601F005FC02
:10412000BDE8FF9F06482146001D00F06BFF2146B9
:104130000220FFF7B3FCF3E7FFE700200290C7E798
:1041400088000020C16170476FF0040070470000D4
:104150002DE9F04106460220FFF7D8FC374D040058
:1041600038D100210A46AC68A86906E0036BE31A5F
:104170008B4201D319460246C0680028F6D11AB115
:1041800001211046FFF794FF0220FFF7BFFC040057
:1041900020D17F2100221346AF6868690EE0447C7D
:1041A000B4420AD88C4208D8D0F830C0A7EB0C0C27
:1041B000944502D3624603462146C0680028EED1EA
:1041C0001BB101211846FFF773FF0220FFF79EFC89
:1041D00004002FD0A021FCF70CF84020607441F2BD
:1041E000D060A4F86E000023A4F87030183440109A
:1041F0002082608204F80E3CFF2004F80D0C4FF47E
:104200000670208406202086A385E085C01FE083F9
:104210000120608700F028FDE06420646063206571
:10422000A868A06123770648E0660648E06784F83E
:104230008530183C2046BDE8F08100007400002065
:10424000FB57000800DD6D00416170472DE9F0412A
:104250000546007C0C4618B16FF00C00BDE8F081FB
:1042600012B900F0D1FC024626486FF00A0300683C
:104270000BE0018B914207D1A0B3016891B38CB3DD
:1042800026687EB3B1422DD0C0680028F1D11D4907
:10429000103948690BE0068B964207D110B30668C7
:1042A00006B3FCB12768EFB1BE421BD0C06800283E
:1042B000F1D1C8680BE0068B964207D190B1066831
:1042C00086B17CB127686FB1BE420BD0C0680028B0
:1042D000F1D1886909E0068B964205D10668276806
:1042E000BE4201D11846B9E7C0680028F3D114B125
:1042F000206800B128602A83C868E8600020CD608B
:10430000ACE700008400002070B50546007C05265F
:10431000082841D2DFE800F00418232A2A4040325E
:104320001E480024C168A94201D1C96806E0C161E4
:1043300029B1C968A942FAD1E968C069C160002001
:10434000E8602946022007E014480024294610307E
:1043500000F058FE29460320FFF7A0FB1AE00F48A3
:1043600000242946143000F04DFEEAE701212846DA
:1043700001F046FB04000DD12E7407E00121284610
:1043800001F03EFB040005D10920287415B1284630
:1043900000F072FC204670BD0024FBE77400002092
:1043A00010B504460846FFF7A9F938B1008D28B1C9
:1043B000283880B2844200D220460446204610BDF0
:1043C0002DE9FF4F8BB0064619999B4642EA010042
:1043D00050EA8B7191466FF009007DD0B9F1000F62
:1043E00002D10C99002977D1B6F86E10484649459C
:1043F00006D200BF16F8220F40F08000307016E1A0
:1044000005460C9803901998C00701D0042100E0DC
:1044100000211998800701D50C2000E000200844F5
:104420000690B06E0890B6F870A0BAF1080FE1D20D
:104430004FF00008CDF80880318F0698081AA8427E
:1044400000DB284680B200900420FFF75FFB0400E9
:104450005FD0002727606760B8F1000F23D0029873
:10446000046018980294C0071FD006990098002293
:10447000084481B21046FFF7F3FB60600028E7D0E4
:10448000FFF793FC50441FFA80FA0C9838B160682B
:10449000009A4168069808440399FBF791FE60680A
:1044A0004068A06024E0A046DBE7002210460699A1
:1044B000FFF7D6FB60600028CAD0FFF776FC5044B7
:1044C0001FFA80FAA5B1012203200099FFF7C8FB6B
:1044D000D0B10AF1010100E0ABE01FFA81FA0399C3
:1044E00041600399A160626801461046FFF740FCF5
:1044F000BAF1080F0DD80098A08114216068FFF769
:10450000FBFC002805D105E06068FFF7D3FC002024
:10451000606080E0606840682061308BFDF7F0FFEC
:1045200021690880308CFDF7EBFF216948800898ED
:10453000FDF7E4FF21694860206947824FF6C070AB
:10454000FDF7DEFF2169898900EA01075846FDF77A
:10455000D7FF0743206987811998A0732069808954
:10456000FFF77CFB069900F03F008908090301F57D
:10457000A0410843FDF7C4FF216988810098009994
:10458000281A050408982D0C08440890039808443C
:1045900003907FF451AF756F002D7FD000E005468A
:1045A00028680028FBD1E5B328698089FFF756FB0E
:1045B000800700D00120A989401872D0286980891D
:1045C000FFF74CFB80076CD15FEA8B7002D0BBF128
:1045D000010F66D1A989B8F80C000844318F8842D0
:1045E0005FD8A97B98F80E0081425AD128694068AB
:1045F000FFF732FBA9894718D8F810004068FFF789
:104600002BFB87424DD10699D8F80400143149425A
:10461000FFF772FC80B116F8220F40F08000307076
:1046200000E03BE05FEA080001D001F0DCF94FF068
:10463000FF300FB0BDE8F08FD8F80400418951B9C0
:1046400002680021C8F804200160AAF101011FFAE4
:1046500081FAFFF72FFC5FEACB7007D00120FDF74E
:104660004FFF29698A89104388810CE0D8F804102B
:104670006868FFF77DFBA989B8F80C000844A88199
:10468000D8F800002860444502D1A8892C46009043
:1046900041460420FFF702FA05E002E0C6F8748004
:1046A00001E0C5F800805FEA8B7003D009F10100DA
:1046B0001FFA80F95FEACB7005D096F8220040F02F
:1046C000200086F8220056F8681F01EB09003060D0
:1046D000F188A1EB0900F080A6F808A06CB1009861
:1046E00058B1206948B11898800706D40820FDF712
:1046F00007FF21698A8910438881002099E7C0F863
:104700009010704770B51548446923E0E26F7AB1A4
:10471000D4F8845025B1002321466069A84704E0FD
:1047200000232146184601F068F808B90020E06728
:1047300094F82200C1070CD040F0020084F8220057
:10474000204600F099FA94F8220020F0030084F843
:104750002200E468002CD9D170BD00007400002054
:104760002DE9FC410646B54D40680C46A86000881E
:10477000FFF774FA7168C0F3032001EB80006860F2
:10478000A8680088FFF76AFAC0F30320800041425E
:104790003046FFF7B1FB00287ED1308914287BD347
:1047A000A86821461030FEF7EEFB0028F4D14FF048
:1047B0007040FFF751FAA968096900EA01044FF057
:1047C0006040FFF749FA844266D068688089FFF745
:1047D00045FA000B800041423046FFF78DFB002870
:1047E000DAD168680088FFF739FA01466868018005
:1047F0004088FFF733FA0146686841804068FFF758
:104800002BFA014668684160E9608068FFF724FA86
:104810000146686881602961C089FFF71FFA014677
:104820006868C1818089FFF719FA00F03F0028709D
:104830003189800700D00120084481496880002028
:104840000A6814463AE06B68278CB3F800C06745E5
:1048500032D1278B5B889F422ED1AB686768D3F833
:104860000CC0674528D127681B699F4224D118B125
:10487000E368C360E2600C6014B3DFF8C88100270E
:10488000C8F800703189A8F80C107168C8E9016196
:104890006968C8F8101000E05FE06F616F70E26F48
:1048A000002A67D0D4F884C0BCF1000F5AD000238E
:1048B00021466069E0475AE02046E468002CC2D1F6
:1048C0006148006815E06968028C0B889A420FD134
:1048D000028B49888A420BD1A9684268CB689A4208
:1048E00006D1026809698A4202D101F0DBF934E09D
:1048F000C0680028E7D1554B00211868024615E032
:1049000005D004681CB1AF683F69BC420CD16F6828
:10491000048B7F88BC4207D119B1C468CC60C260E7
:10492000186000F0B9F818E00146C0680028E7D127
:1049300068688089FFF792F940070ED4686801889B
:104940004088CDE90001AB686988E8681A460144EF
:104950000C331032286900F0E8FF3046BDE8FC4116
:10496000FFF7A8BA00232146184600F046FF0028AA
:10497000F3D1E7672046AC6100F078FB401D52D0D0
:104980006878010707D5D4F8902032B16FF005019F
:104990006069904701E0C00608D52146284800F02C
:1049A00031FB21460220FFF779F83CE0B4F86C2097
:1049B0002AB1D4F8803013B12146606998476A69FA
:1049C0002E46C2B13078000703D5507B40F001007D
:1049D0005073D4F884C0BCF1000F04D000232146EA
:1049E0006069E04704E000232146184600F005FF17
:1049F00008B17069E0677078800610D5D4F884C07B
:104A0000BCF1000F05D000231A4621466069E0473B
:104A100005E000231A462146184600F0EEFE204627
:104A2000B76100F029F9AF61D8F8040044460028C6
:104A300002D0FFF73FFA6760BDE8FC81C0000020AC
:104A400088000020C85200208C0000208400002034
:104A50007CB50446002214210120FFF701F905006E
:104A600018D0A06D401EFDF749FD034600222946DF
:104A7000204600F031FA06210020CDE90001E37A5A
:104A8000221D21462846FEF7F3FB2846BDE87C4060
:104A9000FFF710BA7CBD00007CB5374D064628787C
:104AA000C10610D5686801884088CDE90001698891
:104AB000E868AB6801441A4628690C331032401C80
:104AC00000F033FF55E0800753D5707CFFF740FBC3
:104AD000040044D0A86810F1100100D001692160E1
:104AE000318B218310F10C013CD0C06860606A6892
:104AF0001088208403202074E8680146401C60620E
:104B0000E062D089A4F85C00A4F85400491E216634
:104B100070696061F069E061308940F29911084084
:104B2000208116480168E1600460204600F012FA16
:104B3000208F211DFFF734FC208700200121CDE9C3
:104B400000010246014612232046FFF739FC05000A
:104B50000AD000212046FFF7ABFA28467CBD4FF073
:104B6000FF307CBD0020C1E72046BDE87C4000F05E
:104B700083B800207CBD0000C00000208800002019
:104B800070B50446007C08B1002070BD0320FEF71C
:104B9000BDFF0500F9D060696861208B2883012082
:104BA0002874208940F002002881E07AE872A07A17
:104BB000A8723CB1206828600F48C168A14203D1A7
:104BC000C96808E00020F6E7C16129B1C968A142BF
:104BD000FAD1E168C069C1600020E060214602208E
:104BE000FEF75CFF0548E861034810300168E960A2
:104BF0000560284670BD000074000020494100088F
:104C00004020FFF7A5BA0000F0B516484FF4004E5B
:104C100000F11001D0E905560F684FF4805C41881F
:104C2000491C89B24180714501D3A0F802C02946D0
:104C3000448803E00A8BA242F1D0C9680029F9D167
:104C4000324603E0118BA142E9D0D268002AF9D1A3
:104C50003B4603E0198BA142E1D0DB68002BF9D180
:104C6000A0B2F0BD740000200249D1E90102104455
:104C700048607047740000202DE9F04704466848FA
:104C80000068A04202D10020BDE8F087B4F85C10B3
:104C9000B4F85200814200D20846814694F82200BE
:104CA000656F80070FD54DB128694068FEF7D4FFC6
:104CB000E16C401AA9890144494504D92046BDE860
:104CC000F04700F0A8BEA66F4FF0000A0EB97EE0D4
:104CD000064630680028FBD179E028698089FEF714
:104CE000BDFFA06F78B194F8220010F0440F0AD1F4
:104CF000616F29B10A6832B98989228F914202D243
:104D000010F0A00F71D028686067207C02280CD0BA
:104D10001020FDF7F5FB29698A891043888194F8F2
:104D2000220020F0030084F822002146284600F0EB
:104D300079F828694068FEF78FFF0746286980895F
:104D4000FEF78CFF800700D00120A9893844084471
:104D5000A16D091A00D5A06528698089FEF77EFF3C
:104D6000800700D00120A98940182CD0C5F800A0E8
:104D7000A06F68B128694068FEF76EFF074630698A
:104D80004068FEF769FF381A1AD504F1780003E08D
:104D9000A56716E0D8F800008046006850B10069A9
:104DA0004068FEF759FF074628694068FEF754FF40
:104DB000381AEFD4D8F800002860C8F8005005E091
:104DC00035602E4602E0284600F0FDFD656F0DB30C
:104DD00028694068FEF740FFE16C401AA989014448
:104DE00049457FF67AAF01E0FFE79DB194F89C005A
:104DF00080B928694068FEF72FFFE16C401AA98945
:104E00000844B4F85C10884204D90120C4F898A082
:104E100084F89C0014F8220F20F08000207032E704
:104E2000D80000207CB505460C46486AFDF766FBB5
:104E300029698860608DFDF763FB2969C881618DF0
:104E4000606A0844E0622E69A87B1436C00703D06C
:104E50001F48FDF753FB30600CB1206840B9201D9E
:104E6000FEF74CFC002831D0011D08D040682060BE
:104E7000B4F936004FF00006401C02D002E00020DA
:104E8000F5E7E686E06B38B912480068E063286908
:104E90004068FEF7E1FE20646968288A8A88801AE3
:104EA0004A89121A4A8169680A89101A0881696850
:104EB0002869221D4860286906210682A07ACDE96A
:104EC0000001E37A21466868FEF7D2F97CBD000054
:104ED000B40504027C0000202DE9F04105461F4680
:104EE0001646008B4C68FDF70BFB2080288CFDF7E5
:104EF00007FB60806760686AFDF700FBA0604FF603
:104F0000C070FDF7FDFAA18900EA01071020FDF746
:104F1000F7FA0743A781688DFDF7F2FAE0810027D1
:104F20006782A089FEF79AFEF11706EB917189104E
:104F3000090300F03F0001F5A041084380B2FDF7EE
:104F4000DFFAA0812782698D686A0844E8622046FA
:104F5000BDE8F08170B51E4E0546706800F114047E
:104F60008089FEF77BFE0521B1EB103F1ED27068F1
:104F70008089FEF773FE6FF0040101EB1030090C1D
:104F800001EA8000002140F2B4520DE0635C002B86
:104F90000CD0012B0BD0022B04EB010309D05B7862
:104FA000002B03D0194489B28142EFD370BD491C54
:104FB000F9E75E78042EF9D1091D8142F6D85B88A5
:104FC0005BBA934200D803B913462B87EBE7000086
:104FD000C000002070B50446007C002811D00A28CB
:104FE0000FD001280DD0E06F002510B1FEF762FF51
:104FF000E567606F00F0F7FCA06F00F0F4FC6567F8
:10500000A56770BD70B50C460168A14202D1C968A0
:1050100001600BE0114806E0C968A14203D1C069F4
:10502000E168C16002E0C1610029F5D10025204698
:10503000E560FFF7CFFF207C0A280CD001280AD0BA
:1050400094F82200C10706D040F0020084F8220044
:105050002046FFF711FE257470BD0000740000208B
:10506000C0F88C1080F83520704700002DE9FC5FF7
:10507000CD4D0446287841071DD5207C022815D047
:10508000616AE868421A15D4228D1144401A00283A
:1050900010DC687840F00800687014F8220F20F0E7
:1050A000010020706FF00500BDE8FC9FA06D29692C
:1050B0008842EED075E180070ED5207C02280BD007
:1050C000032809D094F8220040F0020084F822005E
:1050D0002046FFF7D1FD64E1B4484FF0000A0068B4
:1050E000206384F89DA02046FFF734FF207CDFF882
:1050F000C082801EAF4FB04E4FF0040B4FF00A0934
:105100000828D7D2DFE800F00468BFC3F0BFEFEE95
:105110002878C106CED580074ED5A06F00694068BB
:10512000FEF79AFD2A69401C904242D1B4F86E0005
:10513000401CA4F86E00E8680146401C6062E2640E
:10514000E0626868491EC089A4F85C00216684F8A2
:1051500010B0208F211DFFF723F900EB80014FF6DF
:10516000FF72208702EA4101A4F85410B4F85210EB
:10517000012900D14000A4F85200B4F87000401E8C
:10518000A4F87000A06F0168A16771B1A4F836A0FF
:1051900084F84AA000F017FCD4F88830002B91D096
:1051A00000222146606998478CE74FF0FF31E18685
:1051B000F0E72878C0068ED5686801884088CDE978
:1051C0000001AB686988E8681A46014403F10C03E2
:1051D00002F11002286948E02878C10648D5E16C40
:1051E0002869A0EB0101491E33D4A16D411A0029A1
:1051F0002FDC84F810B0E3695BB1002221466069BE
:10520000984730B101212046FEF752FF6FF00400AD
:105210004AE7B4F85260204600F0D0F8B4F86C00C9
:1052200010B1401EA4F86C00208F012E01D14FEA6E
:105230004000A4F852006878800618D594F822003F
:1052400040F0020084F822002046FFF715FD0720F9
:105250005DE069680A884988CDE900126A88E968D2
:10526000AB6811441A460C33103200F05EFB98E034
:10527000800707D5606AE968401E884202D120464F
:1052800000F0EBFA8DE0204600F098F8D3E72046D6
:1052900000F094F868788006002828784FEAC0600B
:1052A0002EDA002821DAA06D296988421DD194F8F0
:1052B000220040F0020084F822002046FFF7DCFCC8
:1052C0002046FFF787FE3868A04202D1C0683860E8
:1052D00051E03060C0B3C068A042FAD13168E068E4
:1052E000C86048E04FE030E013E094F8220040F05E
:1052F000020084F822002046FFF7BEFC082006E0EA
:1053000000284EDAA06D296988424AD1062020740F
:1053100047E0204600F052F86878800641D594F8BE
:10532000220040F0020084F822002046FFF7A4FC8F
:105330002046FFF74FFE3868A042C7D0306018B152
:10534000C068A042FAD1C9E715E0204600F036F85F
:105350002878C00625D5A06D2969884221D120462C
:10536000FFF738FE3868A042B0D0306018B1C0688E
:10537000A042FAD1B2E784F81090D8F80010E160AA
:10538000C8F800400DE0204600F018F82878C00664
:1053900007D5A06D2969884203D1687840F01000D4
:1053A0006870002080E60000C00000207C00002023
:1053B0008C00002088000020900000202DE9F041A2
:1053C000F94D04464FF000062878C0067ED5B4F8A3
:1053D0005C30616E276EE86803EB0102B7EB000CEE
:1053E0000BD4874202D12F69CF1B06D42F69B94253
:1053F00010D16968C98999420CD96968C989A4F82A
:105400005C1020662869606621B194F89C0008B1A0
:1054100084F89C60E36C2969C81A00282DDCA4F884
:105420006C60688830BBB4F85C70606E3844904241
:1054300020D1B4F9360000281CDB8B421AD194F835
:1054400050000146401C884201D984F8500094F86D
:105450005000032809D9B4F85210208F084480B2B4
:10546000884201D9A4F85200A3E002D1204600F0FE
:1054700018FA9EE084F850609BE0421E78D4A26D3A
:105480008A1A002A74DC94F82220530706D522F0E9
:10549000040204F8222F628E2286223C3434A67540
:1054A000628AB4F9103002EBE302A2822087628F95
:1054B000104460872677A16114F8240C343C04283A
:1054C00035D3B4F85200B4F8541000E0ADE088428F
:1054D000218F04D2014489B2814207D827E0494391
:1054E00091FBF0F1014489B2884220D2A4F8521015
:1054F0001DE03868A0677868FEF757FCB4F86C00C8
:1055000050B138698089FEF7A9FBC00704D0B4F810
:105510006C00401EA4F86C007868FEF746FCB4F8F6
:105520007010081AA4F87000384600F04CFAA06F0A
:10553000D0B100694068FEF78FFB0746A06F006995
:105540008089FEF78BFB800700D001203844A76FCD
:10555000B98908442969401A0028CADD27B1E686BE
:1055600084F8346025E003E04FF0FF30E086F7E791
:10557000A4F86C601DE0386860677868FEF715FC79
:10558000B4F86C0050B138698089FEF767FBC0073A
:1055900004D0B4F86C00401EA4F86C007868FEF7E4
:1055A00004FCB4F87010081AA4F87000384600F033
:1055B0000AFA606FB8B100694068FEF74DFB074614
:1055C000606F00698089FEF749FB800700D00120E9
:1055D0003844676FB98901442869411A03D4A16D21
:1055E000401A0028C7DDE06BF8B1216C2A69891ADE
:1055F0001BD56E490988081AB4F94410A0EBE100E4
:1056000000B2014409B2A4F84410002801DA404273
:1056100000B23C34B4F90A20A0EBA200104460812F
:1056200000EBE100A08144F83C696B88002B7CD042
:10563000616AEA68DFF87881A1EB0200471E2BD48B
:105640001344CB1A5B1C002B26DCD8F80470798934
:1056500081420ADA3989091A89B203E039817E81E7
:105660003F68801A7A898242F8DB404201B23846AC
:10567000FEF742FC7968C8F80810AB89616AB8F88F
:105680000C20A1EB0303A2EB0302A8F80C20E960B5
:10569000D8F8100041600AE0501A0CD594F82200A6
:1056A00040F0020084F822002046FFF7E5FA606A25
:1056B000E968081A77D4218D606A4218E9688A1A65
:1056C000521C002A7CDC88427AD1D8F81000474668
:1056D0008089FEF7C3FA800701D0012100E0002194
:1056E000B889B846084480B26880218D814237D29B
:1056F000D8F810008089FEF7B1FAC00712D04FF633
:10570000C070FCF7FDFE0746D8F8100080890740FE
:10571000FEF7A4FA00F03E00FCF7F2FE0743D8F8CB
:1057200010008781208D474600E04EE0A8F80C006D
:10573000D8F810008089FEF791FA800702D5B88961
:10574000401EB881B9897868FEF706FC38698089FF
:10575000FEF784FA800700D00120B98908446880E8
:10576000E96880B201446162218D081A20852046D3
:1057700000F0DEFAD8F8041040460A890AB16961DF
:105780004660D8F810008089FEF768FAC00703D099
:10579000687840F02000687094F82200C10709D0B2
:1057A00020F001001DE00BE0C00000207C00002084
:1057B000C852002040F0010084F82200BDE8F081CA
:1057C0002046BDE8F04100F026B9606AE9680A1A8F
:1057D00005D4228D1044081A401C0028EEDD94F8F0
:1057E000220040F0020084F822002046BDE8F0418B
:1057F000FFF742BAC0F88410704710B5140008468D
:1058000006D0218900F00BF82046FEF753FB00E09C
:105810000BB1002010BDBDE81040FEF775BD10B5FE
:105820000446008D084480B240F6683120858842E5
:1058300000D92185204600F07BFA40F2DA21884227
:105840000ADB94F8220040F0020084F8220020468F
:10585000BDE81040FFF710BA10BD2DE9F041866F8A
:105860000446002E1BD0306804F17405A06700E0E8
:105870002D68286850B100694068FEF7EDF90746C9
:1058800030694068FEF7E8F9381AF1D428683060CA
:105890003C342E60A07B401CA07300202060BDE83B
:1058A000F08110B50446806F002826D094F82200BD
:1058B000400722D42046FFF7D0FFB4F85210B4F8C6
:1058C0005C00814201D9400800E04808A4F8540077
:1058D00081B2208FB1EB400F05D24FF6FF7101EA84
:1058E0004001A4F8541089B200EB4000223408446F
:1058F0002086207840F00400207010BD816F0029C0
:1059000012D000E011460A68002AFBD1426F0A60FB
:105910000022816FC0E91D1290F84A10491C80F8DE
:105920004A10C263FFF7A8B970472DE9FC5F9046A3
:10593000DDE90C9A0E4683461F4600221421012001
:10594000FEF78EF905003CD048466C68FCF7D8FDA0
:1059500020805046FCF7D4FD60805846FCF7CEFD11
:1059600060603046FCF7CAFDA0604FF6C070FCF7DF
:10597000C7FDA18900EA01061420FCF7C1FD06431A
:10598000A68140F66830FCF7BBFDE0810026668208
:10599000A089FEF763F900F03F0040F4A040FCF757
:1059A000AFFDA08126820620CDE90060FF233A46A4
:1059B00041462846FDF75CFC2846BDE8FC5FFEF743
:1059C00079BABDE8FC9F70B504004FF0000508D01F
:1059D000606810B1FEF76EFA054621460420FEF716
:1059E0005DF8284670BD70B5002405E00568FFF736
:1059F000EAFF2044C4B228460028F7D1204670BDF3
:105A00001CB500230122CDE900230B4600221146DC
:105A1000FEF7D6FC1CBD7CB5044600263246142198
:105A20000120FEF71DF905001DD094F8220020F09A
:105A3000030084F82200A06DFCF760FD03463246A7
:105A400029462046FFF748FA0621A07ACDE9000151
:105A5000E37A221D21462846FDF70AFC2846FEF778
:105A600029FA00207CBD6FF001007CBDC0F88010D9
:105A700070474174704700002DE9FC47854D4FF495
:105A8000FA79A868401C0027A860BA466C69E0E073
:105A9000217C4FF00008022903D194F84A0006281F
:105AA0001AD094F84A200C2A18D094F89C30BBB134
:105AB000D4F898007849401CC4F89800595C884292
:105AC00043D3C4F898A0072B02D25B1C84F89C3007
:105AD000204600F05EF938E0012640E0012634E07F
